:100000000C945A000C946C000C946C000C946C00D2
:100010000C946C000C946C000C946C000C946C00B0
:100020000C946C000C946C000C946C000C946C00A0
:100030000C946C000C946C000C947D010C946C007E
:100040000C946C000C946C000C946C000C946C0080
:100050000C946C000C946C000C946C000C946C0070
:100060000C946C000C946C000C946C000C946C0060
:100070000C946C000C946C000C946C000C946C0050
:100080000C946C000C946C000C946C000C946C0040
:100090000C946C000C946C000C946C000C946C0030
:1000A0000C946C000C946C000C946C000C946C0020
:1000B0000C946C0011241FBECFEFD8E0DEBFCDBF83
:1000C00021E0A0E0B1E001C01D92A331B207E1F749
:1000D0000E949D000C9496040C940000ECE7F0E064
:1000E00080818064808380818F77808380818F7D11
:1000F0008083EAE7F0E08081816080838081826094
:10010000808380818460808380818068808308957B
:100110008770ECE7F0E09081907F892B8083EAE79D
:10012000F0E080818064808380917A0086FDFCCF3E
:10013000809178009091790008958FEF84B98AB901
:100140000E946E000E94B8010E94230184E00E9478
:1001500058010E94790187E00E948800BC0180E07C
:1001600090E00E94730360930C0170930D018093E3
:100170000E0190930F010E9433028FE19EE40197DC
:10018000F1F700C0000086E00E948800BC0180E01A
:1001900090E00E94730360930801709309018093BB
:1001A0000A0190930B0120E030E048EC52E40E94F9
:1001B000010420E030EC4FE754E40E94D202609347
:1001C00000017093010180930201909303010E944A
:1001D0004403862F61E00E943A018FE19EE401977B
:1001E000F1F700C0000085E00E948800BC0180E0BB
:1001F00090E00E9473036093040170930501809363
:1002000006019093070120E030E04FE753E40E949D
:10021000010420E030EC4FE754E40E94D2026093E6
:1002200000017093010180930201909303010E94E9
:100230004403862F0E9476018FE19EE40197F1F737
:1002400000C0000088CFE1EBF0E08081877F8083F1
:10025000A0EBB0E08C9182608C938C9181608C9348
:1002600080818460808380818D7F808380818160B4
:1002700080830895613049F4E0EBF0E0908190686C
:10028000908390819F7B908308C0E0EBF0E09081A9
:10029000906890839081906490832FEF829FC0013B
:1002A000112464E670E00E946E046093B300089528
:1002B000809312018E3060F44AB121E030E0B90140
:1002C00002C0660F771F8A95E2F7CB01842B8AB9AB
:1002D00084B5826084BD85B5836085BD85E087BDBA
:1002E000EEE6F0E0808182608083089580931101C2
:1002F000089510921001789408951F920F920FB6EE
:100300000F9211242F938F939F93809110018F5FF1
:10031000809310019091100180911101981768F459
:100320002BB181E090E00090120102C0880F991F6C
:100330000A94E2F7822B8BB90DC02BB181E090E0DB
:100340000090120102C0880F991F0A94E2F780956D
:1003500082238BB9809110018F3F11F4109210010C
:100360009F918F912F910F900FBE0F901F90189516
:1003700084B1866084B910928500109284008FE366
:100380009CE99093870080938600E0E8F0E080EAA3
:100390008083808182608083E1E8F0E088E180836F
:1003A00080818260808308954F925F926F927F92E6
:1003B000AF92BF92CF92DF92EF92FF920F931F9373
:1003C000CF93DF93CDB7DEB728970FB6F894DEBF93
:1003D0000FBECDBF29013A01ED82FE820F8318873F
:1003E0000E94650269837A838B839C83A6019501B1
:1003F000698D7A8D8B8D9C8D0E9465029B01AC016D
:1004000069817A818B819C810E94010469837A834E
:100410008B839C83A3019201C801B7010E946502EE
:100420009B01AC0169817A818B819C810E94D202FF
:100430009B01AC01C601B5010E94660228960FB669
:10044000F894DEBF0FBECDBFDF91CF911F910F910A
:10045000FF90EF90DF90CF90BF90AF907F906F9024
:100460005F904F900895AF92BF92CF92DF92EF923C
:10047000FF920F931F9325E42F9326E92F931F924A
:100480001F920F2EA12CB12CFAE7CF2EF4E4DF2E11
:10049000F02DE12CF12C00E814E420E030E0A9017B
:1004A0000E94D4010F900F900F900F900E94440370
:1004B00070938900609388001F910F91FF90EF90D7
:1004C000DF90CF90BF90AF9008955058BB27AA27D8
:1004D0000E947D020C94C7030E94B90338F00E9469
:1004E000C00320F039F49F3F19F426F40C94B603AE
:1004F0000EF4E095E7FB0C94B003E92F0E94D803BB
:1005000058F3BA17620773078407950720F079F448
:10051000A6F50C94FA030EF4E0950B2EBA2FA02D3D
:100520000B01B90190010C01CA01A0011124FF27A0
:10053000591B99F0593F50F4503E68F11A16F0409B
:10054000A22F232F342F4427585FF3CF469537959A
:100550002795A795F0405395C9F77EF41F16BA0B5F
:10056000620B730B840BBAF09150A1F0FF0FBB1F0D
:10057000661F771F881FC2F70EC0BA0F621F731F56
:10058000841F48F4879577956795B795F7959E3FB3
:1005900008F0B0CF9395880F08F09927EE0F979544
:1005A000879508950E94E6020C94C7030E94C00339
:1005B00058F00E94B90340F029F45F3F29F00C94F1
:1005C000B00351110C94FB030C94B6030E94D803A2
:1005D00068F39923B1F3552391F3951B550BBB2772
:1005E000AA2762177307840738F09F5F5F4F220FB7
:1005F000331F441FAA1FA9F335D00E2E3AF0E0E8AE
:1006000032D091505040E695001CCAF72BD0FE2FF7
:1006100029D0660F771F881FBB1F2617370748078B
:10062000AB07B0E809F0BB0B802DBF01FF27935843
:100630005F4F3AF09E3F510578F00C94B0030C9454
:10064000FB035F3FE4F3983ED4F386957795679577
:10065000B795F7959F5FC9F7880F911D9695879578
:1006600097F90895E1E0660F771F881FBB1F621797
:1006700073078407BA0720F0621B730B840BBA0B55
:10068000EE1F88F7E09508950E94E00388F09F57D9
:1006900098F0B92F9927B751B0F0E1F0660F771FA6
:1006A000881F991F1AF0BA95C9F714C0B13091F09C
:1006B0000E94FA03B1E008950C94FA03672F782F93
:1006C0008827B85F39F0B93FCCF386957795679561
:1006D000B395D9F73EF490958095709561957F4FCD
:1006E0008F4F9F4F0895E89409C097FB3EF4909573
:1006F0008095709561957F4F8F4F9F4F9923A9F0FB
:10070000F92F96E9BB279395F69587957795679589
:10071000B795F111F8CFFAF4BB0F11F460FF1BC0CD
:100720006F5F7F4F8F4F9F4F16C0882311F096E960
:1007300011C0772321F09EE8872F762F05C066230E
:1007400071F096E8862F70E060E02AF09A95660FC7
:10075000771F881FDAF7880F9695879597F9089580
:1007600097F99F6780E870E060E008959FEF80EC64
:10077000089500240A941616170618060906089507
:1007800000240A9412161306140605060895092E6D
:100790000394000C11F4882352F0BB0F40F4BF2BDC
:1007A00011F460FF04C06F5F7F4F8F4F9F4F08951C
:1007B00057FD9058440F551F59F05F3F71F0479512
:1007C000880F97FB991F61F09F3F79F087950895F7
:1007D000121613061406551FF2CF4695F1DF08C016
:1007E000161617061806991FF1CF86957105610533
:1007F00008940895E894BB2766277727CB0197F9DB
:1008000008950E9414040C94C7030E94B90338F0A1
:100810000E94C00320F0952311F00C94B0030C94B7
:10082000B60311240C94FB030E94D80370F3959F28
:10083000C1F3950F50E0551F629FF001729FBB27D7
:10084000F00DB11D639FAA27F00DB11DAA1F649F73
:100850006627B00DA11D661F829F2227B00DA11D26
:10086000621F739FB00DA11D621F839FA00D611DAC
:10087000221F749F3327A00D611D231F849F600DCD
:10088000211D822F762F6A2F11249F5750409AF0F6
:10089000F1F088234AF0EE0FFF1FBB1F661F771F82
:1008A000881F91505040A9F79E3F510580F00C944D
:1008B000B0030C94FB035F3FE4F3983ED4F38695BA
:1008C00077956795B795F795E7959F5FC1F7FE2BED
:1008D000880F911D9695879597F9089597FB072E98
:1008E00016F4009407D077FD09D00E94820407FC1B
:1008F00005D03EF4909581959F4F08957095619530
:100900007F4F0895AA1BBB1B51E107C0AA1FBB1F45
:10091000A617B70710F0A61BB70B881F991F5A958B
:10092000A9F780959095BC01CD010895F894FFCF6B
:00000001FF
